{
  "contractName": "HelloWorld",
  "abi": [
    {
      "inputs": [],
      "name": "say_hello",
      "outputs": [
        {
          "internalType": "string",
          "name": "",
          "type": "string"
        }
      ],
      "stateMutability": "pure",
      "type": "function",
      "constant": true
    },
    {
      "inputs": [
        {
          "internalType": "uint256",
          "name": "a",
          "type": "uint256"
        },
        {
          "internalType": "uint256",
          "name": "b",
          "type": "uint256"
        }
      ],
      "name": "add",
      "outputs": [
        {
          "internalType": "uint256",
          "name": "",
          "type": "uint256"
        }
      ],
      "stateMutability": "pure",
      "type": "function",
      "constant": true
    },
    {
      "inputs": [
        {
          "internalType": "uint256",
          "name": "a",
          "type": "uint256"
        }
      ],
      "name": "times2",
      "outputs": [
        {
          "internalType": "uint256",
          "name": "",
          "type": "uint256"
        }
      ],
      "stateMutability": "pure",
      "type": "function",
      "constant": true
    },
    {
      "inputs": [
        {
          "internalType": "string",
          "name": "a",
          "type": "string"
        }
      ],
      "name": "echo",
      "outputs": [
        {
          "internalType": "string",
          "name": "",
          "type": "string"
        }
      ],
      "stateMutability": "pure",
      "type": "function",
      "constant": true
    }
  ],
  "bytecode": "0x608060405234801561001057600080fd5b506104cd806100206000396000f3fe608060405234801561001057600080fd5b506004361061004c5760003560e01c8063771602f7146100515780638a9d0e0514610081578063b4598503146100b1578063f15da729146100cf575b600080fd5b61006b600480360381019061006691906101f7565b6100ff565b6040516100789190610246565b60405180910390f35b61009b60048036038101906100969190610261565b610115565b6040516100a89190610246565b60405180910390f35b6100b961012b565b6040516100c6919061031e565b60405180910390f35b6100e960048036038101906100e491906103a5565b610168565b6040516100f6919061031e565b60405180910390f35b6000818361010d9190610421565b905092915050565b60006002826101249190610455565b9050919050565b60606040518060400160405280600c81526020017f48656c6c6f20576f726c64210000000000000000000000000000000000000000815250905090565b606082828080601f016020809104026020016040519081016040528093929190818152602001838380828437600081840152601f19601f82011690508083019250505050505050905092915050565b600080fd5b600080fd5b6000819050919050565b6101d4816101c1565b81146101df57600080fd5b50565b6000813590506101f1816101cb565b92915050565b6000806040838503121561020e5761020d6101b7565b5b600061021c858286016101e2565b925050602061022d858286016101e2565b9150509250929050565b610240816101c1565b82525050565b600060208201905061025b6000830184610237565b92915050565b600060208284031215610277576102766101b7565b5b6000610285848285016101e2565b91505092915050565b600081519050919050565b600082825260208201905092915050565b60005b838110156102c85780820151818401526020810190506102ad565b60008484015250505050565b6000601f19601f8301169050919050565b60006102f08261028e565b6102fa8185610299565b935061030a8185602086016102aa565b610313816102d4565b840191505092915050565b6000602082019050818103600083015261033881846102e5565b905092915050565b600080fd5b600080fd5b600080fd5b60008083601f84011261036557610364610340565b5b8235905067ffffffffffffffff81111561038257610381610345565b5b60208301915083600182028301111561039e5761039d61034a565b5b9250929050565b600080602083850312156103bc576103bb6101b7565b5b600083013567ffffffffffffffff8111156103da576103d96101bc565b5b6103e68582860161034f565b92509250509250929050565b7f4e487b7100000000000000000000000000000000000000000000000000000000600052601160045260246000fd5b600061042c826101c1565b9150610437836101c1565b925082820190508082111561044f5761044e6103f2565b5b92915050565b6000610460826101c1565b915061046b836101c1565b9250828202610479816101c1565b915082820484148315176104905761048f6103f2565b5b509291505056fea26469706673582212202637e90c155453ebff560bf0e993948e49b279503328237084116271b95951fc64736f6c63430008130033",
  "immutableReferences": {},
  "source": "// SPDX-License-Identifier: MIT\npragma solidity ^0.8.19;\n \ncontract HelloWorld {\n    function say_hello() external pure returns(string memory) {\n        return \"Hello World!\";\n    }\n\n    function add(uint256 a, uint256 b) public pure returns(uint256) {\n        return a + b;\n    }\n\n    function times2(uint256 a) external pure returns(uint256) {\n        return a * 2;\n    }\n\n    function echo(string calldata a) external pure returns(string memory) {\n        return a;\n    }\n}",
  "sourcePath": "/home/takita/broken_check/contracts/HelloWorld.sol",
  "compiler": {
    "name": "solc",
    "version": "0.8.19+commit.7dd6d404.Emscripten.clang"
  },
  "schemaVersion": "3.4.16",
  "updatedAt": "2024-04-24T03:51:13.883Z",
  "networkType": "ethereum",
  "devdoc": {
    "kind": "dev",
    "methods": {},
    "version": 1
  },
  "userdoc": {
    "kind": "user",
    "methods": {},
    "version": 1
  }
}